{
  "contractName": "CrowdFunding",
  "abi": [
    {
      "constant": true,
      "inputs": [],
      "name": "projectcount",
      "outputs": [
        {
          "name": "",
          "type": "uint256"
        }
      ],
      "payable": false,
      "stateMutability": "view",
      "type": "function"
    },
    {
      "constant": true,
      "inputs": [
        {
          "name": "",
          "type": "uint256"
        }
      ],
      "name": "projects",
      "outputs": [
        {
          "name": "creator",
          "type": "address"
        },
        {
          "name": "amountGoal",
          "type": "uint256"
        },
        {
          "name": "completeAt",
          "type": "uint256"
        },
        {
          "name": "currentBalance",
          "type": "uint256"
        },
        {
          "name": "raiseBy",
          "type": "uint256"
        },
        {
          "name": "title",
          "type": "string"
        },
        {
          "name": "description",
          "type": "string"
        },
        {
          "name": "mcount",
          "type": "uint256"
        },
        {
          "name": "initp",
          "type": "uint256"
        },
        {
          "name": "refp",
          "type": "uint256"
        },
        {
          "name": "state",
          "type": "uint8"
        }
      ],
      "payable": false,
      "stateMutability": "view",
      "type": "function"
    },
    {
      "anonymous": false,
      "inputs": [
        {
          "indexed": false,
          "name": "contributor",
          "type": "address"
        },
        {
          "indexed": false,
          "name": "amount",
          "type": "uint256"
        },
        {
          "indexed": false,
          "name": "currentTotal",
          "type": "uint256"
        }
      ],
      "name": "FundingReceived",
      "type": "event"
    },
    {
      "anonymous": false,
      "inputs": [
        {
          "indexed": false,
          "name": "recipient",
          "type": "address"
        }
      ],
      "name": "CreatorPaid",
      "type": "event"
    },
    {
      "anonymous": false,
      "inputs": [
        {
          "indexed": false,
          "name": "projectStarter",
          "type": "address"
        },
        {
          "indexed": false,
          "name": "projectTitle",
          "type": "string"
        },
        {
          "indexed": false,
          "name": "projectDesc",
          "type": "string"
        },
        {
          "indexed": false,
          "name": "deadline",
          "type": "uint256"
        },
        {
          "indexed": false,
          "name": "goalAmount",
          "type": "uint256"
        }
      ],
      "name": "ProjectStarted",
      "type": "event"
    },
    {
      "anonymous": false,
      "inputs": [
        {
          "indexed": false,
          "name": "dummy",
          "type": "uint256"
        }
      ],
      "name": "debugging",
      "type": "event"
    },
    {
      "anonymous": false,
      "inputs": [
        {
          "indexed": false,
          "name": "pro_id",
          "type": "uint256"
        },
        {
          "indexed": false,
          "name": "mile_id",
          "type": "uint256"
        },
        {
          "indexed": false,
          "name": "vote_val",
          "type": "uint256"
        }
      ],
      "name": "votedEvent",
      "type": "event"
    },
    {
      "constant": false,
      "inputs": [
        {
          "name": "title",
          "type": "string"
        },
        {
          "name": "description",
          "type": "string"
        },
        {
          "name": "durationInDays",
          "type": "uint256"
        },
        {
          "name": "amountToRaise",
          "type": "uint256"
        },
        {
          "name": "initp",
          "type": "uint256"
        },
        {
          "name": "mile_count",
          "type": "uint256"
        }
      ],
      "name": "AddProject",
      "outputs": [],
      "payable": false,
      "stateMutability": "nonpayable",
      "type": "function"
    },
    {
      "constant": false,
      "inputs": [
        {
          "name": "pro_id",
          "type": "uint256"
        },
        {
          "name": "mile_count",
          "type": "uint256"
        },
        {
          "name": "Descs",
          "type": "bytes32[]"
        },
        {
          "name": "pers",
          "type": "uint256[]"
        },
        {
          "name": "deads",
          "type": "uint256[]"
        }
      ],
      "name": "addMilestones",
      "outputs": [],
      "payable": false,
      "stateMutability": "nonpayable",
      "type": "function"
    },
    {
      "constant": false,
      "inputs": [
        {
          "name": "pro_id",
          "type": "uint256"
        }
      ],
      "name": "UpdateProState",
      "outputs": [],
      "payable": false,
      "stateMutability": "nonpayable",
      "type": "function"
    },
    {
      "constant": false,
      "inputs": [
        {
          "name": "pro_id",
          "type": "uint256"
        },
        {
          "name": "mile_id",
          "type": "uint256"
        }
      ],
      "name": "StartElection",
      "outputs": [],
      "payable": false,
      "stateMutability": "nonpayable",
      "type": "function"
    },
    {
      "constant": false,
      "inputs": [
        {
          "name": "pro_id",
          "type": "uint256"
        },
        {
          "name": "mile_id",
          "type": "uint256"
        }
      ],
      "name": "ElectionComplete",
      "outputs": [],
      "payable": false,
      "stateMutability": "nonpayable",
      "type": "function"
    },
    {
      "constant": true,
      "inputs": [
        {
          "name": "pro_id",
          "type": "uint256"
        },
        {
          "name": "mile_id",
          "type": "uint256"
        }
      ],
      "name": "getmile",
      "outputs": [
        {
          "name": "",
          "type": "bytes32"
        },
        {
          "name": "",
          "type": "uint256"
        },
        {
          "name": "",
          "type": "uint256"
        },
        {
          "name": "",
          "type": "uint256"
        },
        {
          "name": "",
          "type": "uint256"
        },
        {
          "name": "",
          "type": "uint256"
        }
      ],
      "payable": false,
      "stateMutability": "view",
      "type": "function"
    },
    {
      "constant": false,
      "inputs": [
        {
          "name": "pro_id",
          "type": "uint256"
        },
        {
          "name": "mile_id",
          "type": "uint256"
        },
        {
          "name": "vote_val",
          "type": "uint256"
        }
      ],
      "name": "Vote",
      "outputs": [],
      "payable": false,
      "stateMutability": "nonpayable",
      "type": "function"
    },
    {
      "constant": false,
      "inputs": [
        {
          "name": "id",
          "type": "uint256"
        }
      ],
      "name": "contribute",
      "outputs": [
        {
          "name": "",
          "type": "uint256"
        }
      ],
      "payable": true,
      "stateMutability": "payable",
      "type": "function"
    },
    {
      "constant": false,
      "inputs": [
        {
          "name": "id",
          "type": "uint256"
        }
      ],
      "name": "checkIfFundingComplete",
      "outputs": [],
      "payable": false,
      "stateMutability": "nonpayable",
      "type": "function"
    },
    {
      "constant": false,
      "inputs": [
        {
          "name": "id",
          "type": "uint256"
        }
      ],
      "name": "getRefund",
      "outputs": [
        {
          "name": "",
          "type": "bool"
        }
      ],
      "payable": false,
      "stateMutability": "nonpayable",
      "type": "function"
    }
  ],
  "bytecode": "0x608060405234801561001057600080fd5b50612671806100206000396000f3fe6080604052600436106100a75760003560e01c8063921a1b6d11610064578063921a1b6d146101c25780639eefec87146101eb578063c1cbbca71461022d578063ca96fc381461025d578063cb36411414610286578063d2f0be99146102af576100a7565b8063104e22c6146100ac578063107046bd146100d75780631c3377a01461011e5780633e1706b7146101475780636bbb2afb146101705780637215fd9014610199575b600080fd5b3480156100b857600080fd5b506100c16102ec565b6040516100ce9190612488565b60405180910390f35b3480156100e357600080fd5b506100fe60048036036100f99190810190611e0b565b6102f2565b6040516101159b9a99989796959493929190612296565b60405180910390f35b34801561012a57600080fd5b5061014560048036036101409190810190611e34565b6104a9565b005b34801561015357600080fd5b5061016e60048036036101699190810190611e34565b610557565b005b34801561017c57600080fd5b5061019760048036036101929190810190611f3c565b610745565b005b3480156101a557600080fd5b506101c060048036036101bb9190810190611e0b565b610c15565b005b3480156101ce57600080fd5b506101e960048036036101e49190810190611d48565b610da3565b005b3480156101f757600080fd5b50610212600480360361020d9190810190611e34565b611049565b6040516102249695949392919061236a565b60405180910390f35b61024760048036036102429190810190611e0b565b611182565b6040516102549190612488565b60405180910390f35b34801561026957600080fd5b50610284600480360361027f9190810190611e0b565b611406565b005b34801561029257600080fd5b506102ad60048036036102a89190810190611e70565b611492565b005b3480156102bb57600080fd5b506102d660048036036102d19190810190611e0b565b6115f1565b6040516102e3919061234f565b60405180910390f35b60015481565b60006020528060005260406000206000915090508060000160009054906101000a900473ffffffffffffffffffffffffffffffffffffffff1690806001015490806002015490806003015490806004015490806005018054600181600116156101000203166002900480601f0160208091040260200160405190810160405280929190818152602001828054600181600116156101000203166002900480156103dc5780601f106103b1576101008083540402835291602001916103dc565b820191906000526020600020905b8154815290600101906020018083116103bf57829003601f168201915b505050505090806006018054600181600116156101000203166002900480601f01602080910402602001604051908101604052809291908181526020018280546001816001161561010002031660029004801561047a5780601f1061044f5761010080835404028352916020019161047a565b820191906000526020600020905b81548152906001019060200180831161045d57829003601f168201915b50505050509080600701549080600801549080600901549080600a0160009054906101000a900460ff1690508b565b818160008060038111156104b957fe5b600080858152602001908152602001600020600c01600084815260200190815260200160002060030160009054906101000a900460ff1660038111156104fb57fe5b1461050557600080fd5b6001600080878152602001908152602001600020600c01600086815260200190815260200160002060030160006101000a81548160ff0219169083600381111561054b57fe5b02179055505050505050565b600080838152602001908152602001600020600c01600082815260200190815260200160002060050154600080848152602001908152602001600020600c01600083815260200190815260200160002060040154111561068d576002600080848152602001908152602001600020600c01600083815260200190815260200160002060030160006101000a81548160ff021916908360038111156105f757fe5b021790555061062f82600080858152602001908152602001600020600c0160008481526020019081526020016000206001015461185c565b5060016000808481526020019081526020016000206007015403811415610688576002600080848152602001908152602001600020600a0160006101000a81548160ff0219169083600381111561068257fe5b02179055505b610741565b6003600080848152602001908152602001600020600a0160006101000a81548160ff021916908360038111156106bf57fe5b021790555060008190505b6000808481526020019081526020016000206007015481101561073f576003600080858152602001908152602001600020600c01600083815260200190815260200160002060030160006101000a81548160ff0219169083600381111561072d57fe5b021790555080806001019150506106ca565b505b5050565b8282600180600381111561075557fe5b600080858152602001908152602001600020600c01600084815260200190815260200160002060030160009054906101000a900460ff16600381111561079757fe5b146107a157600080fd5b6000806000888152602001908152602001600020600b0160003373ffffffffffffffffffffffffffffffffffffffff1673ffffffffffffffffffffffffffffffffffffffff1681526020019081526020016000205411610836576040517f08c379a000000000000000000000000000000000000000000000000000000000815260040161082d90612448565b60405180910390fd5b6000806000888152602001908152602001600020600c01600087815260200190815260200160002060060160003373ffffffffffffffffffffffffffffffffffffffff1673ffffffffffffffffffffffffffffffffffffffff1681526020019081526020016000205414156109965783600080888152602001908152602001600020600c01600087815260200190815260200160002060060160003373ffffffffffffffffffffffffffffffffffffffff1673ffffffffffffffffffffffffffffffffffffffff16815260200190815260200160002081905550600184141561095757600080878152602001908152602001600020600c01600086815260200190815260200160002060040160008154809291906001019190505550610991565b600080878152602001908152602001600020600c016000868152602001908152602001600020600501600081548092919060010191905055505b610bd2565b83600080888152602001908152602001600020600c01600087815260200190815260200160002060060160003373ffffffffffffffffffffffffffffffffffffffff1673ffffffffffffffffffffffffffffffffffffffff1681526020019081526020016000205414610bd1576001841415610af0576001600080888152602001908152602001600020600c01600087815260200190815260200160002060060160003373ffffffffffffffffffffffffffffffffffffffff1673ffffffffffffffffffffffffffffffffffffffff16815260200190815260200160002081905550600080878152602001908152602001600020600c01600086815260200190815260200160002060040160008154809291906001019190505550600080878152602001908152602001600020600c0160008681526020019081526020016000206005016000815480929190600190039190505550610bd0565b6002600080888152602001908152602001600020600c01600087815260200190815260200160002060060160003373ffffffffffffffffffffffffffffffffffffffff1673ffffffffffffffffffffffffffffffffffffffff16815260200190815260200160002081905550600080878152602001908152602001600020600c0160008681526020019081526020016000206004016000815480929190600190039190505550600080878152602001908152602001600020600c016000868152602001908152602001600020600501600081548092919060010191905055505b5b5b7f315b4fbaa43b0567b86f873056cf610e96b0a5d7b7e28d6ffdbb91d9f6cd5d1b868686604051610c05939291906124a3565b60405180910390a1505050505050565b806000806003811115610c2457fe5b600080848152602001908152602001600020600a0160009054906101000a900460ff166003811115610c5257fe5b14610c5c57600080fd5b60008084815260200190815260200160002060010154600080858152602001908152602001600020600301541015610d46576003600080858152602001908152602001600020600a0160006101000a81548160ff02191690836003811115610cc057fe5b021790555060008090505b60008085815260200190815260200160002060070154811015610d40576003600080868152602001908152602001600020600c01600083815260200190815260200160002060030160006101000a81548160ff02191690836003811115610d2e57fe5b02179055508080600101915050610ccb565b50610d9e565b6001600080858152602001908152602001600020600a0160006101000a81548160ff02191690836003811115610d7857fe5b0217905550610d9c836000808681526020019081526020016000206008015461185c565b505b505050565b6000610dba6103e842611a4690919063ffffffff16565b9050610de4610dd56201518087611a4690919063ffffffff16565b82611ab690919063ffffffff16565b90506001600081548092919060010191905055506040518061016001604052803373ffffffffffffffffffffffffffffffffffffffff16815260200185815260200160008152602001600081526020018281526020018a8a8080601f016020809104026020016040519081016040528093929190818152602001838380828437600081840152601f19601f82011690508083019250505050505050815260200188888080601f016020809104026020016040519081016040528093929190818152602001838380828437600081840152601f19601f8201169050808301925050505050505081526020018381526020018481526020016064815260200160006003811115610eee57fe5b815250600080600154815260200190815260200160002060008201518160000160006101000a81548173ffffffffffffffffffffffffffffffffffffffff021916908373ffffffffffffffffffffffffffffffffffffffff1602179055506020820151816001015560408201518160020155606082015181600301556080820151816004015560a0820151816005019080519060200190610f90929190611bb0565b5060c0820151816006019080519060200190610fad929190611bb0565b5060e082015181600701556101008201518160080155610120820151816009015561014082015181600a0160006101000a81548160ff02191690836003811115610ff357fe5b02179055509050507f31e7f710022f40b1c9e3717a9940fcb7cb1533db7438b3fe6cf2819e86d1a520338a8a8a8a868a60405161103697969594939291906121fa565b60405180910390a1505050505050505050565b60008060008060008060008060008a8152602001908152602001600020600c0160008981526020019081526020016000209050600080600381111561108a57fe5b8260030160009054906101000a900460ff1660038111156110a757fe5b14156110b257600090505b600160038111156110bf57fe5b8260030160009054906101000a900460ff1660038111156110dc57fe5b14156110e757600190505b600260038111156110f457fe5b8260030160009054906101000a900460ff16600381111561111157fe5b141561111c57600290505b60038081111561112857fe5b8260030160009054906101000a900460ff16600381111561114557fe5b141561115057600390505b816000015482600101548360020154838560040154866005015497509750975097509750975050509295509295509295565b600081600080600381111561119357fe5b600080848152602001908152602001600020600a0160009054906101000a900460ff1660038111156111c157fe5b146111cb57600080fd5b7febc975a58b80caeaef6fbf9aab99a2727c42f912ad130bfbdd6a84cb8d2dc69160016040516111fb91906123cb565b60405180910390a160008085815260200190815260200160002060000160009054906101000a900473ffffffffffffffffffffffffffffffffffffffff1673ffffffffffffffffffffffffffffffffffffffff163373ffffffffffffffffffffffffffffffffffffffff1614156112a7576040517f08c379a000000000000000000000000000000000000000000000000000000000815260040161129e90612428565b60405180910390fd5b61130c34600080878152602001908152602001600020600b0160003373ffffffffffffffffffffffffffffffffffffffff1673ffffffffffffffffffffffffffffffffffffffff16815260200190815260200160002054611ab690919063ffffffff16565b600080868152602001908152602001600020600b0160003373ffffffffffffffffffffffffffffffffffffffff1673ffffffffffffffffffffffffffffffffffffffff1681526020019081526020016000208190555061138a3460008087815260200190815260200160002060030154611ab690919063ffffffff16565b600080868152602001908152602001600020600301819055507f5cdc4ab8d637538ead6cc1904d4160343656c8c82bd266635cfd31ac008fffe03334600080888152602001908152602001600020600301546040516113eb9392919061225f565b60405180910390a16113fc84611406565b8392505050919050565b60008082815260200190815260200160002060010154600080838152602001908152602001600020600301541061148f576001600080838152602001908152602001600020600a0160006101000a81548160ff0219169083600381111561146957fe5b021790555061148d816000808481526020019081526020016000206008015461185c565b505b50565b60008090505b878110156115e65760006114b76103e842611a4690919063ffffffff16565b90506114f36114e4620151808686868181106114cf57fe5b90506020020135611a4690919063ffffffff16565b82611ab690919063ffffffff16565b90506040518060c0016040528089898581811061150c57fe5b90506020020135815260200187878581811061152457fe5b9050602002013581526020018281526020016000600381111561154357fe5b81526020016000815260200160008152506000808c8152602001908152602001600020600c01600084815260200190815260200160002060008201518160000155602082015181600101556040820151816002015560608201518160030160006101000a81548160ff021916908360038111156115bc57fe5b02179055506080820151816004015560a08201518160050155905050508080600101915050611498565b505050505050505050565b600081600380600381111561160257fe5b600080848152602001908152602001600020600a0160009054906101000a900460ff16600381111561163057fe5b1461163a57600080fd5b6000806000868152602001908152602001600020600b0160003373ffffffffffffffffffffffffffffffffffffffff1673ffffffffffffffffffffffffffffffffffffffff168152602001908152602001600020541161169957600080fd5b6000606461171760008088815260200190815260200160002060090154600080898152602001908152602001600020600b0160003373ffffffffffffffffffffffffffffffffffffffff1673ffffffffffffffffffffffffffffffffffffffff16815260200190815260200160002054611a4690919063ffffffff16565b8161171e57fe5b0490503373ffffffffffffffffffffffffffffffffffffffff166108fc829081150290604051600060405180830381858888f19350505050611764576000935050611855565b6117de600080878152602001908152602001600020600b0160003373ffffffffffffffffffffffffffffffffffffffff1673ffffffffffffffffffffffffffffffffffffffff1681526020019081526020016000205460008088815260200190815260200160002060030154611b0b90919063ffffffff16565b600080878152602001908152602001600020600301819055506000806000878152602001908152602001600020600b0160003373ffffffffffffffffffffffffffffffffffffffff1673ffffffffffffffffffffffffffffffffffffffff1681526020019081526020016000208190555060019350505b5050919050565b600082600180600381111561186d57fe5b600080848152602001908152602001600020600a0160009054906101000a900460ff16600381111561189b57fe5b146118a557600080fd5b600060646118d1866000808a815260200190815260200160002060030154611a4690919063ffffffff16565b816118d857fe5b04905060008087815260200190815260200160002060000160009054906101000a900473ffffffffffffffffffffffffffffffffffffffff1673ffffffffffffffffffffffffffffffffffffffff166108fc829081150290604051600060405180830381858888f1935050505015611a01577f2f256415efc8561af8db667cb242964b19be7380f379ccdafaa0e54a6f6b706960008088815260200190815260200160002060000160009054906101000a900473ffffffffffffffffffffffffffffffffffffffff166040516119ae91906121df565b60405180910390a16119de8560008089815260200190815260200160002060090154611b0b90919063ffffffff16565b600080888152602001908152602001600020600901819055506001935050611a3e565b6001600080888152602001908152602001600020600a0160006101000a81548160ff02191690836003811115611a3357fe5b021790555060009350505b505092915050565b600080831415611a595760009050611ab0565b6000828402905082848281611a6a57fe5b0414611aab576040517f08c379a0000000000000000000000000000000000000000000000000000000008152600401611aa290612468565b60405180910390fd5b809150505b92915050565b600080828401905083811015611b01576040517f08c379a0000000000000000000000000000000000000000000000000000000008152600401611af890612408565b60405180910390fd5b8091505092915050565b6000611b4d83836040518060400160405280601e81526020017f536166654d6174683a207375627472616374696f6e206f766572666c6f770000815250611b55565b905092915050565b6000838311158290611b9d576040517f08c379a0000000000000000000000000000000000000000000000000000000008152600401611b9491906123e6565b60405180910390fd5b5060008385039050809150509392505050565b828054600181600116156101000203166002900490600052602060002090601f016020900481019282601f10611bf157805160ff1916838001178555611c1f565b82800160010185558215611c1f579182015b82811115611c1e578251825591602001919060010190611c03565b5b509050611c2c9190611c30565b5090565b611c5291905b80821115611c4e576000816000905550600101611c36565b5090565b90565b60008083601f840112611c6757600080fd5b8235905067ffffffffffffffff811115611c8057600080fd5b602083019150836020820283011115611c9857600080fd5b9250929050565b60008083601f840112611cb157600080fd5b8235905067ffffffffffffffff811115611cca57600080fd5b602083019150836020820283011115611ce257600080fd5b9250929050565b60008083601f840112611cfb57600080fd5b8235905067ffffffffffffffff811115611d1457600080fd5b602083019150836001820283011115611d2c57600080fd5b9250929050565b600081359050611d4281612620565b92915050565b60008060008060008060008060c0898b031215611d6457600080fd5b600089013567ffffffffffffffff811115611d7e57600080fd5b611d8a8b828c01611ce9565b9850985050602089013567ffffffffffffffff811115611da957600080fd5b611db58b828c01611ce9565b96509650506040611dc88b828c01611d33565b9450506060611dd98b828c01611d33565b9350506080611dea8b828c01611d33565b92505060a0611dfb8b828c01611d33565b9150509295985092959890939650565b600060208284031215611e1d57600080fd5b6000611e2b84828501611d33565b91505092915050565b60008060408385031215611e4757600080fd5b6000611e5585828601611d33565b9250506020611e6685828601611d33565b9150509250929050565b60008060008060008060008060a0898b031215611e8c57600080fd5b6000611e9a8b828c01611d33565b9850506020611eab8b828c01611d33565b975050604089013567ffffffffffffffff811115611ec857600080fd5b611ed48b828c01611c55565b9650965050606089013567ffffffffffffffff811115611ef357600080fd5b611eff8b828c01611c9f565b9450945050608089013567ffffffffffffffff811115611f1e57600080fd5b611f2a8b828c01611c9f565b92509250509295985092959890939650565b600080600060608486031215611f5157600080fd5b6000611f5f86828701611d33565b9350506020611f7086828701611d33565b9250506040611f8186828701611d33565b9150509250925092565b611f9481612566565b82525050565b611fa381612501565b82525050565b611fb281612513565b82525050565b611fc18161251f565b82525050565b611fd081612578565b82525050565b611fdf8161258a565b82525050565b6000611ff183856124f0565b9350611ffe8385846125c0565b61200783612602565b840190509392505050565b600061201d826124e5565b61202781856124f0565b93506120378185602086016125cf565b61204081612602565b840191505092915050565b6000612056826124da565b61206081856124f0565b93506120708185602086016125cf565b61207981612602565b840191505092915050565b6000612091601b836124f0565b91507f536166654d6174683a206164646974696f6e206f766572666c6f7700000000006000830152602082019050919050565b60006120d16016836124f0565b91507f53656e6465722063616e742062652063726561746f72000000000000000000006000830152602082019050919050565b6000612111602a836124f0565b91507f4f6e6c7920436f6e7472696275746f7273206f6620746869732070726f6a656360008301527f742063616e20766f7465000000000000000000000000000000000000000000006020830152604082019050919050565b60006121776021836124f0565b91507f536166654d6174683a206d756c7469706c69636174696f6e206f766572666c6f60008301527f77000000000000000000000000000000000000000000000000000000000000006020830152604082019050919050565b6121d98161255c565b82525050565b60006020820190506121f46000830184611f8b565b92915050565b600060a08201905061220f600083018a611f8b565b818103602083015261222281888a611fe5565b90508181036040830152612237818688611fe5565b905061224660608301856121d0565b61225360808301846121d0565b98975050505050505050565b60006060820190506122746000830186611f8b565b61228160208301856121d0565b61228e60408301846121d0565b949350505050565b6000610160820190506122ac600083018e611f9a565b6122b9602083018d6121d0565b6122c6604083018c6121d0565b6122d3606083018b6121d0565b6122e0608083018a6121d0565b81810360a08301526122f2818961204b565b905081810360c0830152612306818861204b565b905061231560e08301876121d0565b6123236101008301866121d0565b6123316101208301856121d0565b61233f610140830184611fc7565b9c9b505050505050505050505050565b60006020820190506123646000830184611fa9565b92915050565b600060c08201905061237f6000830189611fb8565b61238c60208301886121d0565b61239960408301876121d0565b6123a660608301866121d0565b6123b360808301856121d0565b6123c060a08301846121d0565b979650505050505050565b60006020820190506123e06000830184611fd6565b92915050565b600060208201905081810360008301526124008184612012565b905092915050565b6000602082019050818103600083015261242181612084565b9050919050565b60006020820190508181036000830152612441816120c4565b9050919050565b6000602082019050818103600083015261246181612104565b9050919050565b600060208201905081810360008301526124818161216a565b9050919050565b600060208201905061249d60008301846121d0565b92915050565b60006060820190506124b860008301866121d0565b6124c560208301856121d0565b6124d260408301846121d0565b949350505050565b600081519050919050565b600081519050919050565b600082825260208201905092915050565b600061250c8261253c565b9050919050565b60008115159050919050565b6000819050919050565b600081905061253782612613565b919050565b600073ffffffffffffffffffffffffffffffffffffffff82169050919050565b6000819050919050565b60006125718261259c565b9050919050565b600061258382612529565b9050919050565b60006125958261255c565b9050919050565b60006125a7826125ae565b9050919050565b60006125b98261253c565b9050919050565b82818337600083830152505050565b60005b838110156125ed5780820151818401526020810190506125d2565b838111156125fc576000848401525b50505050565b6000601f19601f8301169050919050565b6004811061261d57fe5b50565b6126298161255c565b811461263457600080fd5b5056fea265627a7a7230582043ae08dacfbae5050851f517b82852011bbcece8f703bbc75477d8632c41766d6c6578706572696d656e74616cf50037",
  "source": "\n// We will be using Solidity version 0.5.4\npragma solidity ^0.5.4;\npragma experimental ABIEncoderV2;\n// Importing OpenZeppelin's SafeMath Implementation\nimport './SafeMath.sol';\n\n\ncontract CrowdFunding {\n    using SafeMath for uint256;\n\n    enum State {\n        Fundraising,\n        Fundraised,\n        Success,\n        Failure\n    }\n\n    enum Mile_State{\n        Under_Progress,\n        Voting,\n        Success,\n        Failure\n    }\n\n    struct MileStone{\n        bytes32 desc;\n        uint per;\n        uint deadline;\n        Mile_State state;\n        uint yesCount;\n        uint noCount;\n        mapping(address => uint ) voters;\n    }\n\n    modifier inMileState(uint pro_id,uint mile_id, Mile_State milestate){\n      require(projects[pro_id].milestones[mile_id].state == milestate);\n      _;\n    }\n\n    struct Project{\n        address payable creator;\n        uint amountGoal; // required to reach at least this much, else everyone gets refund\n        uint completeAt;\n        uint256 currentBalance;\n        uint raiseBy;\n        string title;\n        string description;\n        uint mcount;\n        uint initp;\n        uint refp;\n        State state; // initialize on create\n        mapping (address => uint) contributions;\n        mapping(uint => MileStone) milestones;\n    }\n\n    mapping(uint => Project) public projects;\n\n    uint public projectcount;\n\n    event FundingReceived(address contributor, uint amount, uint currentTotal);\n\n    event CreatorPaid(address recipient);\n\n    // Modifier to check current state\n    modifier inState(uint id, State _state) {\n        require(projects[id].state == _state);\n        _;\n    }\n\n    modifier inmileState(uint id, uint mile_id, Mile_State _state) {\n        require(projects[id].milestones[mile_id].state == _state);\n        _;\n    }\n\n    // Modifier to check if the function caller is the project creator\n    modifier isCreator(uint id) {\n        require(msg.sender == projects[id].creator);\n        _;\n    }\n\n    modifier isContributor(uint id) {\n        require(projects[id].contributions[msg.sender] > 0);\n        _;\n    }\n\n    // Event that will be emitted whenever a new project is started\n    event ProjectStarted(\n        address projectStarter,\n        string projectTitle,\n        string projectDesc,\n        uint256 deadline,\n        uint256 goalAmount\n    );\n\n    event debugging(\n        uint dummy\n    );\n    /** @dev Function to start a new project.\n      * @param title Title of the project to be created\n      * @param description Brief description about the project\n      * @param durationInDays Project deadline in days\n      * @param amountToRaise Project goal in wei\n      */\n\n  function AddProject(\n          string calldata title,\n          string calldata description,\n          uint durationInDays,\n          uint amountToRaise,\n          uint initp,\n          uint mile_count\n      ) external {\n          uint raiseUntil = now.mul(1000);\n          raiseUntil = raiseUntil.add(durationInDays.mul(86400));\n          projectcount ++;\n          // Project newProject = new Project(msg.sender, title, description, raiseUntil, amountToRaise);\n          // projects.push(newProject);\n          projects[projectcount] = Project(msg.sender, amountToRaise, 0, 0,\n          raiseUntil, title, description, mile_count, initp, 100, State.Fundraising);\n          emit ProjectStarted(\n              msg.sender,\n              title,\n              description,\n              raiseUntil,\n              amountToRaise\n          );\n      }\n\n      function addMilestones(\n          uint pro_id,\n          uint mile_count,\n          bytes32[] calldata Descs,\n          uint[] calldata pers,\n          uint[] calldata deads\n      ) external {\n          for(uint i=0;i<mile_count;i++){\n              uint temp = now.mul(1000);\n              temp = temp.add(deads[i].mul(86400));\n              projects[pro_id].milestones[i] = MileStone(Descs[i], pers[i], temp, Mile_State.Under_Progress, 0, 0);\n          }\n      }\n\n    function UpdateProState(uint pro_id) external inState(pro_id, State.Fundraising){\n      if (projects[pro_id].currentBalance < projects[pro_id].amountGoal){\n        projects[pro_id].state = State.Failure;\n        for (uint i=0;i<projects[pro_id].mcount;i++)\n          projects[pro_id].milestones[i].state = Mile_State.Failure;\n      }\n      else{\n        projects[pro_id].state = State.Fundraised;\n        payOut(pro_id, projects[pro_id].initp);\n      }\n    }\n\n    function StartElection(uint pro_id, uint mile_id) external inmileState(pro_id, mile_id, Mile_State.Under_Progress){\n      projects[pro_id].milestones[mile_id].state = Mile_State.Voting;\n    }\n\n    function ElectionComplete(uint pro_id, uint mile_id) external {\n      if (projects[pro_id].milestones[mile_id].yesCount > projects[pro_id].milestones[mile_id].noCount){\n        projects[pro_id].milestones[mile_id].state = Mile_State.Success;\n        payOut(pro_id, projects[pro_id].milestones[mile_id].per);\n        if(mile_id == projects[pro_id].mcount-1)\n          projects[pro_id].state = State.Success;\n      }\n      else{\n        projects[pro_id].state = State.Failure;\n        for (uint i=mile_id;i<projects[pro_id].mcount;i++)\n          projects[pro_id].milestones[i].state = Mile_State.Failure;\n      }\n    }\n\n    function getmile(uint pro_id, uint mile_id) public view returns(bytes32, uint, uint, uint, uint, uint){\n        MileStone storage ms = projects[pro_id].milestones[mile_id];\n        uint val;\n        if (ms.state == Mile_State.Under_Progress){\n          val = 0;\n        }\n        if (ms.state == Mile_State.Voting){\n          val = 1;\n        }\n        if (ms.state == Mile_State.Success){\n          val = 2;\n        }\n        if (ms.state == Mile_State.Failure){\n          val = 3;\n        }\n        return (ms.desc, ms.per, ms.deadline, val ,ms.yesCount, ms.noCount);\n    }\n\n    event votedEvent (\n        uint pro_id,\n        uint mile_id,\n        uint vote_val\n    );\n\n    function Vote(uint pro_id, uint mile_id, uint vote_val) inMileState(pro_id,mile_id,Mile_State.Voting) public {\n      require(projects[pro_id].contributions[msg.sender] > 0,\"Only Contributors of this project can vote\");\n      if(projects[pro_id].milestones[mile_id].voters[msg.sender] == 0){\n        projects[pro_id].milestones[mile_id].voters[msg.sender] = vote_val;\n        if(vote_val == 1){\n          projects[pro_id].milestones[mile_id].yesCount++;\n        }\n        else{\n          projects[pro_id].milestones[mile_id].noCount++;\n        }\n      }\n      else{\n        if(projects[pro_id].milestones[mile_id].voters[msg.sender] != vote_val){\n          if(vote_val == 1){\n            projects[pro_id].milestones[mile_id].voters[msg.sender] = 1;\n            projects[pro_id].milestones[mile_id].yesCount++;\n            projects[pro_id].milestones[mile_id].noCount--;\n          }\n          else{\n            projects[pro_id].milestones[mile_id].voters[msg.sender] = 2;\n            projects[pro_id].milestones[mile_id].yesCount--;\n            projects[pro_id].milestones[mile_id].noCount++;\n          }\n        }\n      }\n      emit votedEvent(pro_id,mile_id,vote_val);\n      // return (projects[pro_id].milestones[mile_id].yesCount, projects[pro_id].milestones[mile_id].noCount);\n    }\n\n    /** @dev Function to get all projects' contract addresses.\n      * @return A list of all projects' contract addreses\n      */\n    // function returnAllProjects() external view returns(Project[] memory){\n    //     return projects;\n    // }\n\n    function contribute(uint id) external inState(id, State.Fundraising) payable returns(uint) {\n        emit debugging(1);\n        require(msg.sender != projects[id].creator, \"Sender cant be creator\");\n        projects[id].contributions[msg.sender] = projects[id].contributions[msg.sender].add(msg.value);\n        projects[id].currentBalance = projects[id].currentBalance.add(msg.value);\n        emit FundingReceived(msg.sender, msg.value, projects[id].currentBalance);\n        checkIfFundingComplete(id);\n        return id;\n    }\n\n    function checkIfFundingComplete(uint id) public {\n        if (projects[id].currentBalance >= projects[id].amountGoal) {\n            projects[id].state = State.Fundraised;\n            payOut(id, projects[id].initp);\n        }\n        // else if (now > projects[id].raiseBy)  {\n        //     projects[id].state = State.Failure;\n        // }\n        // projects[id].completeAt = now;\n    }\n\n    function payOut(uint id, uint perc) internal inState(id, State.Fundraised) returns (bool){\n        uint256 totalRaised = (projects[id].currentBalance).mul(perc)/100;\n        // projects[id].currentBalance = 0;\n\n        if (projects[id].creator.send(totalRaised)) {\n            emit CreatorPaid(projects[id].creator);\n            projects[id].refp = projects[id].refp.sub(perc);\n            return true;\n        } else {\n            // projects[id].currentBalance = totalRaised;\n            projects[id].state = State.Fundraised;\n        }\n        return false;\n    }\n\n    function getRefund(uint id) public inState(id, State.Failure) returns (bool){\n        require(projects[id].contributions[msg.sender] > 0);\n\n        uint amountToRefund = (projects[id].contributions[msg.sender]).mul(projects[id].refp)/100;\n        // projects[id].contributions[msg.sender] = 0;\n\n        if (!msg.sender.send(amountToRefund)) {\n            // projects[id].contributions[msg.sender] = currentBal;\n            return false;\n        } else {\n            projects[id].currentBalance = projects[id].currentBalance.sub(projects[id].contributions[msg.sender]);\n            projects[id].contributions[msg.sender] = 0;\n        }\n        return true;\n    }\n}\n\n\n\n\n\n\n\n\n\n\n\n\n\n\n\n\n\n// pragma solidity ^0.5.0;\n// pragma experimental ABIEncoderV2;\n// import \"./SafeMath.sol\";\n\n\n// contract Crowdfunding {\n//     using SafeMath for uint256;\n\n//     // List of existing projects\n//     Project[] private projects;\n\n//     // Event that will be emitted whenever a new project is started\n//     event ProjectStarted(\n//         address contractAddress,\n//         address projectStarter,\n//         string projectTitle,\n//         string projectDesc,\n//         uint256 deadline,\n//         uint256 goalAmount\n//     );\n\n//     function startProject(\n//         string calldata title,\n//         string calldata description,\n//         uint durationInDays,\n//         uint amountToRaise\n//     ) external {\n//         uint raiseUntil = now.add(durationInDays.mul(1 days));\n//         Project newProject = new Project(msg.sender, title, description, raiseUntil, amountToRaise);\n//         projects.push(newProject);\n//         emit ProjectStarted(\n//             address(newProject),\n//             msg.sender,\n//             title,\n//             description,\n//             raiseUntil,\n//             amountToRaise\n//         );\n//     }\n\n//     function returnAllProjects() external view returns(Project[] memory){\n//         return projects;\n//     }\n// }\n\n// contract Project{\n\n//     struct Milestone {\n//         uint id;\n//         string desc;\n//         uint perc;\n//         uint day;\n//     }\n\n//     enum State{\n//         Fundraising,\n//         Successful,\n//         Expired\n//     }\n\n//     address payable public Creator;\n//     string public Title;\n//     string public Desc;\n//     uint public Inp;\n//     uint public Goal_amount;\n//     uint public CurrentBalance;\n//     uint public raiseBy;\n//     Milestone[] public milestones;\n//     State public state = State.Fundraising;\n//     mapping (address => uint) public Contributions;\n\n//     event FundingReceived(address contributor, uint amount, uint currentbalance);\n//     event CreatorPaid(address recipent);\n\n//     modifier inState(State _state){\n//         require(state == _state, \"Incorrect state\");\n//         _;\n//     }\n\n//     modifier isCreator(){\n//         require(msg.sender == Creator, \"Not Creator\");\n//         _;\n//     }\n\n//     constructor(\n//         address payable creator,\n//         string memory title,\n//         string memory description,\n//         uint deadline,\n//         uint req_amount,\n//         uint inp,\n//         Milestone[] memory miles\n//     ) public {\n//         Creator = creator;\n//         Title = title;\n//         Desc = description;\n//         Inp = inp;\n//         Goal_amount = req_amount;\n//         raiseBy = deadline;\n//         milestones = miles;\n//         CurrentBalance = 0;\n//     }\n\n//     function contribute() external inState(State.Fundraising) payable {\n//         require(msg.sender != Creator);\n//         Contributions[msg.sender] = Contributions[msg.sender].add(msg.value);\n//         CurrentBalance = CurrentBalance.add(msg.value);\n//         emit FundingReceived(msg.sender, msg.value, CurrentBalance);\n//         checkIfFundingCompleteOrExpired();\n//     }\n\n\n//     function checkIfFundingCompleteOrExpired() public {\n//         if (CurrentBalance >= Goal_amount){\n//             state = State.Successful;\n//             payOut();\n//         }\n//         else if (now > raiseBy){\n//             state = State.Expired;\n//         }\n//     }\n\n//     function payOut() internal inState(State.Successful) returns (bool){\n//         uint256 totalRaised = CurrentBalance;\n//         CurrentBalance = 0;\n//         if (Creator.transfer(totalRaised)){\n//             emit CreatorPaid(Creator);\n//             return true;\n//         }\n//         else{\n//             CurrentBalance = totalRaised;\n//             state = State.Successful;\n//         }\n//         return false;\n//     }\n\n//     function getRefund() public inState(State.Expired) returns (bool){\n//         require(Contributions[msg.sender] > 0, \"Sorry you have not contributed for this project\");\n\n//         uint refund_amount = Contributions[msg.sender];\n//         Contributions[msg.sender] = 0;\n//         if (!msg.sender.transfer(refund_amount)){\n//             Contributions[msg.sender] = refund_amount;\n//             return false;\n//         }\n//         else{\n//             CurrentBalance = CurrentBalance.sub(refund_amount);\n//         }\n//         return true;\n//     }\n\n//     function getDetails() public view returns\n//     (\n//         address payable creator,\n//         string memory title,\n//         string memory desc,\n//         uint256 deadline,\n//         State currentState,\n//         uint256 currentAmount,\n//         uint256 GoalAmount\n//     ){\n//         creator = creator;\n//         title = Title;\n//         desc = Desc;\n//         deadline = raiseBy;\n//         currentState = state;\n//         currentAmount = CurrentBalance;\n//         GoalAmount = Goal_amount;\n//     }\n\n// }\n",
  "sourcePath": "/home/ln/Downloads/CrowdFunding2/contracts/CrowdFunding.sol",
  "compiler": {
    "name": "solc",
    "version": "0.5.8+commit.23d335f2.Emscripten.clang"
  },
  "schemaVersion": "3.0.16",
  "updatedAt": "2019-10-16T19:31:53.956Z",
  "devdoc": {
    "methods": {
      "AddProject(string,string,uint256,uint256,uint256,uint256)": {
        "details": "Function to start a new project.",
        "params": {
          "amountToRaise": "Project goal in wei",
          "description": "Brief description about the project",
          "durationInDays": "Project deadline in days",
          "title": "Title of the project to be created"
        }
      },
      "contribute(uint256)": {
        "details": "Function to get all projects' contract addresses.",
        "return": "A list of all projects' contract addreses"
      }
    }
  },
  "userdoc": {
    "methods": {}
  }
}